{
  "contractName": "GetUser",
  "abi": [
    {
      "constant": true,
      "inputs": [
        {
          "name": "",
          "type": "uint256"
        }
      ],
      "name": "users",
      "outputs": [
        {
          "name": "",
          "type": "address"
        }
      ],
      "payable": false,
      "stateMutability": "view",
      "type": "function",
      "signature": "0x365b98b2"
    },
    {
      "constant": true,
      "inputs": [],
      "name": "getUsers",
      "outputs": [
        {
          "name": "",
          "type": "address[16]"
        }
      ],
      "payable": false,
      "stateMutability": "view",
      "type": "function",
      "signature": "0x00ce8e3e"
    },
    {
      "constant": true,
      "inputs": [
        {
          "name": "id",
          "type": "uint256"
        }
      ],
      "name": "get",
      "outputs": [
        {
          "name": "",
          "type": "address"
        }
      ],
      "payable": false,
      "stateMutability": "view",
      "type": "function",
      "signature": "0x9507d39a"
    }
  ],
  "bytecode": "0x608060405234801561001057600080fd5b506102e3806100206000396000f3fe608060405260043610610056576000357c0100000000000000000000000000000000000000000000000000000000900463ffffffff168062ce8e3e1461005b578063365b98b2146100ae5780639507d39a14610129575b600080fd5b34801561006757600080fd5b506100706101a4565b6040518082601060200280838360005b8381101561009b578082015181840152602081019050610080565b5050505090500191505060405180910390f35b3480156100ba57600080fd5b506100e7600480360360208110156100d157600080fd5b8101908080359060200190929190505050610225565b604051808273ffffffffffffffffffffffffffffffffffffffff1673ffffffffffffffffffffffffffffffffffffffff16815260200191505060405180910390f35b34801561013557600080fd5b506101626004803603602081101561014c57600080fd5b810190808035906020019092919050505061025a565b604051808273ffffffffffffffffffffffffffffffffffffffff1673ffffffffffffffffffffffffffffffffffffffff16815260200191505060405180910390f35b6101ac610293565b600060108060200260405190810160405280929190826010801561021b576020028201915b8160009054906101000a900473ffffffffffffffffffffffffffffffffffffffff1673ffffffffffffffffffffffffffffffffffffffff16815260200190600101908083116101d1575b5050505050905090565b60008160108110151561023457fe5b016000915054906101000a900473ffffffffffffffffffffffffffffffffffffffff1681565b6000808260108110151561026a57fe5b0160009054906101000a900473ffffffffffffffffffffffffffffffffffffffff169050919050565b6102006040519081016040528060109060208202803883398082019150509050509056fea165627a7a72305820076c789f6f37aea83a5d7e2602c3a859ec2fa16058462b5c6ea2c5703bae541b0029",
  "source": "// SPDX-License-Identifier: MIT\npragma solidity >=0.4.22;\n\ncontract GetUser {\n    address[16] public users;\n\n    function getUsers() public view returns (address[16] memory) {\n        return users;\n    }\n\n    function get(uint id) public view returns (address) {\n        return users[id];\n    }\n}\n",
  "sourcePath": "C:/Hmk/FreelanceProjects/Upwork/Globe&Citizen/ETH_Solidity_Projects_Learning/contracts/GetUser.sol",
  "compiler": {
    "name": "solc",
    "version": "0.5.0+commit.1d4f565a.Emscripten.clang"
  },
  "schemaVersion": "3.0.1",
  "updatedAt": "2023-08-16T13:33:35.161Z",
  "devdoc": {
    "methods": {}
  },
  "userdoc": {
    "methods": {}
  }
}