{
  "contractName": "GetUser",
  "abi": [
    {
      "constant": true,
      "inputs": [
        {
          "name": "",
          "type": "uint256"
        }
      ],
      "name": "adopters",
      "outputs": [
        {
          "name": "",
          "type": "address"
        }
      ],
      "payable": false,
      "stateMutability": "view",
      "type": "function",
      "signature": "0x43ae80d3"
    },
    {
      "constant": true,
      "inputs": [],
      "name": "getUsers",
      "outputs": [
        {
          "name": "",
          "type": "address[16]"
        }
      ],
      "payable": false,
      "stateMutability": "view",
      "type": "function",
      "signature": "0x00ce8e3e"
    },
    {
      "constant": false,
      "inputs": [
        {
          "name": "petId",
          "type": "uint256"
        }
      ],
      "name": "get",
      "outputs": [
        {
          "name": "",
          "type": "uint256"
        }
      ],
      "payable": false,
      "stateMutability": "nonpayable",
      "type": "function",
      "signature": "0x9507d39a"
    }
  ],
  "bytecode": "0x608060405234801561001057600080fd5b5061035c806100206000396000f3fe608060405260043610610056576000357c0100000000000000000000000000000000000000000000000000000000900463ffffffff168062ce8e3e1461005b57806343ae80d3146100ae5780639507d39a14610129575b600080fd5b34801561006757600080fd5b50610070610178565b6040518082601060200280838360005b8381101561009b578082015181840152602081019050610080565b5050505090500191505060405180910390f35b3480156100ba57600080fd5b506100e7600480360360208110156100d157600080fd5b81019080803590602001909291905050506101f9565b604051808273ffffffffffffffffffffffffffffffffffffffff1673ffffffffffffffffffffffffffffffffffffffff16815260200191505060405180910390f35b34801561013557600080fd5b506101626004803603602081101561014c57600080fd5b810190808035906020019092919050505061022e565b6040518082815260200191505060405180910390f35b61018061030c565b60006010806020026040519081016040528092919082601080156101ef576020028201915b8160009054906101000a900473ffffffffffffffffffffffffffffffffffffffff1673ffffffffffffffffffffffffffffffffffffffff16815260200190600101908083116101a5575b5050505050905090565b60008160108110151561020857fe5b016000915054906101000a900473ffffffffffffffffffffffffffffffffffffffff1681565b60008082101580156102415750600f8211155b15156102b5576040517f08c379a000000000000000000000000000000000000000000000000000000000815260040180806020018281038252600d8152602001807f496e76616c69642070657449640000000000000000000000000000000000000081525060200191505060405180910390fd5b336000836010811015156102c557fe5b0160006101000a81548173ffffffffffffffffffffffffffffffffffffffff021916908373ffffffffffffffffffffffffffffffffffffffff160217905550819050919050565b6102006040519081016040528060109060208202803883398082019150509050509056fea165627a7a723058209564e33296e6af28e8be592ed6a64d6d4dacb8d1a1e36ae7fa140b9fe4b259f70029",
  "source": "// SPDX-License-Identifier: MIT\npragma solidity >=0.4.22;\n\ncontract GetUser {\n    address[16] public adopters;\n\n    function getUsers() public view returns (address[16] memory) {\n        return adopters;\n    }\n\n    function get(uint petId) public returns (uint) {\n        require(petId >= 0 && petId <= 15, \"Invalid petId\");\n        adopters[petId] = msg.sender;\n        return petId;\n    }\n}\n",
  "sourcePath": "C:/Hmk/FreelanceProjects/Upwork/Globe&Citizen/ETH_Solidity_Projects_Learning/contracts/GetUser.sol",
  "compiler": {
    "name": "solc",
    "version": "0.5.0+commit.1d4f565a.Emscripten.clang"
  },
  "schemaVersion": "3.0.1",
  "updatedAt": "2023-08-16T13:06:51.315Z",
  "devdoc": {
    "methods": {}
  },
  "userdoc": {
    "methods": {}
  }
}